:100000000C9470000C94DD090C94040A0C94980074
:100010000C9498000C9498000C9498000C94980000
:100020000C9498000C9498000C9498000C9411086F
:100030000C9498000C9498000C9498000C949800E0
:100040000C942B0A0C9498000C9468100C949A1041
:100050000C9498000C9498000C9498000C949800C0
:100060000C9498000C949800B904BC04E104C604F4
:10007000C304E804CD04D004D704DA04E404000087
:100080000008000201000003040700000000000057
:100090000000010204081020408001020408102022
:1000A00001020408102004040404040404040202ED
:1000B0000202020203030303030300000000230003
:1000C0002600290000000000250028002B00000069
:1000D0000000240027002A002F01E706CA106E0145
:1000E00011241FBECFEFD8E0DEBFCDBF11E0A0E0EE
:1000F000B1E0EEE6F7E202C005900D92AE37B1072F
:10010000D9F723E0AEE7B1E001C01D92A237B207F4
:10011000E1F710E0CEEDD0E004C02297FE010E948E
:100120004713C83DD107C9F70E943D0D0C94AA138F
:100130000C94000088EF91E00C94490787ED91E062
:100140000C944907BC0185E292E00E94361067E4F6
:1001500071E085E292E00C9426108130910519F44B
:1001600080910A0104C0029721F4809118010C9437
:10017000190B80E090E00895682F81E392E00E94DF
:10018000600581E392E00C9484058130910519F0BB
:10019000029721F00895CB010C94A2008FE192E028
:1001A0000E94361067E471E08FE192E00C94261013
:1001B000CF92DF92EF92FF920F931F93CF93DF9333
:1001C00000D000D000D0CDB7DEB786E392E00E9429
:1001D00037066C0186E392E00E943B067C0186E3D1
:1001E00092E00E943F068C016FE671E0CE0101961D
:1001F0000E94CC0FB601CE0101960E94361067E432
:1002000071E0CE0101960E942610B701CE01019641
:100210000E94361067E471E0CE0101960E9426101C
:10022000B801CE0101960E943610BE016F5F7F4F6C
:1002300081ED92E00E94A50DCE0101960E945E0F15
:1002400026960FB6F894DEBF0FBECDBFDF91CF91DB
:100250001F910F91FF90EF90DF90CF9008956FE680
:1002600071E085E292E00E94CC0F6FE671E08FE1D1
:1002700092E00E94CC0F60910C0160931A02809171
:100280001A018093190220E030E045E75AE088EF38
:1002900091E00E94400720E030E045E75AE060919D
:1002A000190287ED91E00E94400720E030E0A901AB
:1002B00060E070E084EC91E00E94BF0820E030E054
:1002C000A90160E070E081EB91E00E94BF0840E08E
:1002D00050E0BA018EE791E00C9494098FE192E02E
:1002E0000E945E0F85E292E00C945E0F26E040E0F3
:1002F00052EC61E070E081ED92E00E94DA0C86E35E
:1003000092E00E94AA0580E091E00E94D80781E374
:1003100092E00E94290565ED71E084EC91E00E9475
:10032000ED0841E050E060E070E084EC91E00E9474
:1003300075086BEA72E081EB91E00E94ED0841E004
:1003400050E060E070E081EB91E00E94750864ECA1
:1003500071E08EE791E00E944A0961EB71E08EE75F
:1003600091E00E944A0980911A02823021F0833084
:1003700021F481E003C080E001C08FEF41E050E054
:100380006AE970E00E94BD0980911902823021F073
:10039000833021F481E003C080E001C08FEF41E0B1
:1003A00050E06EE970E00C94BD0986E392E00E9493
:1003B0004306099709F0C2C080912B0290912C024C
:1003C000843691050CF0C6C086E392E00E943706A1
:1003D000019761F586E392E00E943F060797C1F41A
:1003E00086E392E00E943B06059731F48091240158
:1003F0000E94BC000E94A20086E392E00E943B069D
:10040000049731F4809125010E94BC000E94A20053
:1004100086E392E00E943F06089709F085C080912C
:100420000A010E94190B0E94A2007EC086E392E09E
:100430000E943706029761F586E392E00E943F062C
:100440000797F1F486E392E00E943B06059749F492
:10045000809126010E94BC00BC0182E090E00E94D5
:10046000C50086E392E00E943B06049749F4809120
:1004700027010E94BC00BC0182E090E00E94C50000
:1004800086E392E00E943F06089709F04DC043C002
:1004900086E392E00E943706039709F045C086E3A1
:1004A00092E00E943F06079751F586E392E00E9492
:1004B0003B06059779F4809124010E94BC000E94BC
:1004C000A200809126010E94BC00BC0182E090E065
:1004D0000E94C50086E392E00E943B06049779F4EF
:1004E000809125010E94BC000E94A20080912701FA
:1004F0000E94BC00BC0182E090E00E94C50086E33F
:1005000092E00E943F06089779F480910A010E94C8
:10051000190B0E94A20082E090E00E94AD00BC0195
:1005200082E090E00E94C50080912B0290912C0205
:10053000019690932C0280932B0208951092D4027E
:100540001092D30281ED92E00E94530C10922C0283
:1005500010922B020895EF92FF920F931F93CF9367
:10056000DF9380912B0290912C028436910509F043
:1005700017C186E392E00E9437067C0186E392E091
:100580000E943B068C0186E392E00E943F06EC014C
:1005900082E0E816F10409F4A1C083E0E816F10452
:1005A00009F44AC0EA94EF2809F0EAC04AE050E0B2
:1005B00061E070E081ED92E00E94620E67E471E01C
:1005C00081ED92E00E94980D4AE050E0B80181ED83
:1005D00092E00E94620E67E471E081ED92E00E9479
:1005E000980D4AE050E0BE0181ED92E00E94620E5B
:1005F00067E471E081ED92E00E94980D60911D0228
:1006000070911E024AE050E081ED92E00E94770E68
:1006100067E471E081ED92E00E94980D63E581ED61
:1006200092E00E949A0D67E471E081ED92E00E94F1
:10063000980D65E272E097C04AE050E061E070E03A
:1006400081ED92E00E94620E67E471E081ED92E03C
:100650000E94980D4AE050E0B80181ED92E00E94BE
:10066000620E67E471E081ED92E00E94980D4AE02D
:1006700050E0BE0181ED92E00E94620E67E471E0FD
:1006800081ED92E00E94980D60911D0270911E0212
:100690004AE050E081ED92E00E94770E67E471E05D
:1006A00081ED92E00E94980D63E581ED92E00E9459
:1006B0009A0D67E471E081ED92E00E94980D65E289
:1006C00072E081ED92E00E948A0D65E481ED92E096
:1006D0000E94B70D81ED92E00E94530C4AE050E079
:1006E00062E070E081ED92E00E94620E67E471E0EA
:1006F00081ED92E00E94980D4AE050E0B80181ED52
:1007000092E00E94620E67E471E081ED92E00E9447
:10071000980D4AE050E0BE0181ED92E00E94620E29
:1007200067E471E081ED92E00E94980D60911B02F8
:1007300070911C024AE050E081ED92E00E94770E39
:1007400067E471E081ED92E00E94980D63E581ED30
:1007500092E00E949A0D67E471E081ED92E00E94C0
:10076000980D6FE172E081ED92E00E948A0D65E4E0
:1007700081ED92E00E94B70D81ED92E00E94530C52
:100780006FE671E085E292E00E94E20F6FE671E0B1
:100790008FE192E00E94E20F10922C0210922B0245
:1007A000DF91CF911F910F91FF90EF9008958EE709
:1007B00091E00E94F10886E392E00E9443060997C7
:1007C00009F0B4C086E392E00E943F06079709F063
:1007D000ADC086E392E00E943B06059709F07BC01E
:1007E00086E392E00E943706039709F040C088EF45
:1007F00091E00E94AE078823D1F08091040290918D
:100800000502A0910602B09107028135934CA10523
:10081000B10538F461E070E088EF91E00E94B20722
:1008200002C060E070E070931E0260931D0287EDCD
:1008300091E00E94AE078823D1F08091E30190916E
:10084000E401A091E501B091E6018135934CA10549
:10085000B10538F461E070E087ED91E00E94B207E5
:1008600002C060E070E070931C0260931B0286E39C
:1008700092E00E943706019709F588EF91E00E9407
:10088000AE078823D9F08091040290910502A091CF
:100890000602B09107028135934CA105B10520F500
:1008A00061E070E088EF91E00E94B20770931E0251
:1008B00060931D0210921C0210921B0286E392E0CC
:1008C0000E943706029791F587ED91E00E94AE07EE
:1008D00081110DC0089510921E0210921D021092F7
:1008E0001C0210921B02089560E070E0DFCF80913F
:1008F000E3019091E401A091E501B091E601813519
:10090000934CA105B10578F461E070E087ED91E0CA
:100910000E94B20770931C0260931B0210921E0289
:1009200010921D02089560E070E0F4CF0895CF9317
:10093000DF931092D4021092D30281ED92E00E94D4
:10094000F70B892B69F041E060E070E081ED92E007
:100950000E94EE0EEB0181ED92E00E94530CEDCF70
:10096000FE013197EB30F10598F5EC5CFF4F0C94EC
:10097000451361E070E002C062E070E086E392E05F
:100980000E94C30625C065E070E002C064E070E02C
:1009900086E392E00E94CC061BC067E070E002C0D4
:1009A00068E070E086E392E00E94D50611C069E03D
:1009B00070E002C06AE070E086E392E00E94DE062A
:1009C00007C063E070E0DACF86E392E00E941E0683
:1009D000DF91CF910C94D800CF93CFB7F89480914A
:1009E0003002811127C0E0EBF0E08491ECE9F0E007
:1009F0009491E82FF0E0EE0FFF1FE253FF4FA59117
:100A0000B4918C91892321F461E08AE00E94980BD3
:100A100061E08AE00E945F0B8CB580618CBD8CB573
:100A200080648CBD61E08DE00E945F0B61E08BE033
:100A30000E945F0B809130028F5F80933002CFBFA6
:100A4000CF9108958EBD00000DB407FEFDCF8EB589
:100A5000089561E0809122010E945F0B61E0809126
:100A600020010E945F0B60E080911E010E945F0BDD
:100A700061E080911C010E945F0B61E08091220186
:100A80000E94980B0E94EC0480912F02882399F019
:100A90009FB7F89480912F02813059F48DB38093E1
:100AA0002D022DB380912E02809582238DBB9FBF96
:100AB00002C090932D0280E58CBD81E08DBD08952C
:100AC0001F93CF93DF93162FC2E2D1E060E08881BD
:100AD0000E94980B812F0E94220580E00E9422052F
:100AE00090E0909333028093320280E00E942205CE
:100AF00090E0909335028093340261E08881DF9129
:100B0000CF911F910C94980B20E030E0309132028D
:100B10008091340290913502822B932B23E095959E
:100B200087952A95E1F70895CF93DF93CEE0D1E042
:100B30008881229660E00E94980B6AE070E080E075
:100B400090E00E94A40A81E0C831D80789F7DF91BC
:100B5000CF91089581E090E0909337028093360220
:100B600085E090E0909339028093380287E090E02E
:100B700090933B0280933A028AE090E090933D028A
:100B800080933C0208950F931F93CF93DF938B01C3
:100B9000C0E0D0E0F80180810E5F1F4F61E00E944D
:100BA000980B6AE070E080E090E00E94A40A219631
:100BB000C530D10579F7DF91CF911F910F9108953D
:100BC0000F931F93CF93DF938B01C0E0D0E0F80128
:100BD00080810E5F1F4F61E00E94980B6AE070E019
:100BE00080E090E00E94A40A2196C530D10579F7F3
:100BF000DF91CF911F910F910895CF93DF936130D3
:100C0000710591F4C0E0D1E08881229660E00E94F5
:100C1000980B6AE070E080E090E00E94A40A81E016
:100C2000CA30D80789F707C06230710521F4DF9117
:100C3000CF910C949405DF91CF91089581E090E0DD
:100C4000909337028093360284E090E090933902CB
:100C50008093380287E090E090933B0280933A02C1
:100C60008AE090E090933D0280933C020895FC015D
:100C7000808191810895FC01828193810895FC0116
:100C8000848195810895FC01868197810895CF9391
:100C9000DF93EC018091360290913702813091050B
:100CA00019F50E94940580913A0290913B02873099
:100CB0009105A1F480913802909139028430910518
:100CC00019F46EE372E005C0059709F059C068E4B5
:100CD00072E0CE01DF91CF910C94C305089709F023
:100CE0004FC062E572E0F5CF82309105C9F461E052
:100CF00070E0CE010E94FD0580913A0290913B0286
:100D00008730910551F480913802909139028430F6
:100D10009105D9F00597A1F522C0089789F529C05A
:100D2000039771F580913A0290913B0287309105CB
:100D3000C9F480913802909139028430910541F4D0
:100D40006EE372E0CE010E94C3056EE372E013C051
:100D50000597B1F468E472E0CE010E94C30568E42F
:100D600072E009C0089761F462E572E0CE010E946A
:100D7000C30562E572E0CE01DF91CF910C94E005EE
:100D8000DF91CF910895FC017183608370937102AC
:100D9000609370020C944706FC0173836283709326
:100DA0007302609372020C944706FC01758364839E
:100DB00070937502609374020C944706FC0177836C
:100DC000668370937702609376020C9447068FEFE8
:100DD0009FEF90933702809336029093390280936D
:100DE000380290933B0280933A0290933D028093A5
:100DF0003C0221E030E030933F0220933E0210920B
:100E0000410210924002109243021092420210924C
:100E100045021092440210924702109246022AE0C4
:100E2000E3E3F1E0A8E4B2E001900D922A95E1F746
:100E30002AE0EDE3F1E0A2E5B2E001900D922A95FF
:100E4000E1F72AE0ECE5F2E0DF01322F1D923A955E
:100E5000E9F7E6E6F2E0DF011D922A95E9F79093C3
:100E60007102809370029093730280937202909348
:100E700075028093740290937702809376020895AE
:100E8000FC01328F218F648F50A3478F8EEF838FA9
:100E900008950F931F93CF93DF93EC01EF8DF8A18B
:100EA0000995698B7A8B8B8B9C8B0D891E892F8979
:100EB000388DDC01CB01801B910BA20BB30B8C870F
:100EC0009D87AE87BF878C8D0E94CE0BE1E0892B7A
:100ED00009F4E0E0E88B8D8DE81302C080E039C0B2
:100EE0004C855D856E857F85098D1A8D20E030E00B
:100EF000041715072607370788F78B8D8F5F8B8FB1
:100F0000ED8F09891A892B893C890D8B1E8B2F8BBC
:100F1000388FEE2329F0488759876A877B8704C07A
:100F20004C835D836E837F838230C4F2488559850C
:100F30006A857B850C811D812E813F81400F511F69
:100F4000621F731F488359836A837B831B8E81E0F2
:100F50008E8FDF91CF911F910F910895FC01868DA7
:100F6000168E0895CF92DF92EF92FF929B01FC01C3
:100F7000478D50A1C080D180E280F38041585A4013
:100F800041F4DB0120E432E44FE050E00E945A13C8
:100F900004C0A8EEB3E00E944B13A70196010E9483
:100FA0002313CA01B901FF90EF90DF90CF9008950D
:100FB000EF92FF920F931F93CF93DF93EC017C018D
:100FC00005E010E0F7018081F2E0EF0EF11C61E036
:100FD0000E945F0B01501109A9F700E010E0FE012B
:100FE000E00FF11F61E086850E945F0B0E5F1F4FCF
:100FF0000A301105A1F760E08A850E945F0B60E06E
:101000008C850E945F0B60E0888D0E945F0B60E022
:101010008A8DDF91CF911F910F91FF90EF900C94EB
:101020005F0B1F920F920FB60F921124EF92FF9257
:101030000F931F932F933F934F935F936F937F93E0
:101040008F939F93AF93BF93CF93DF93EF93FF93D0
:10105000C8E7D2E00EE712E04FE7E42E42E0F42EBC
:10106000E881F981309701F18A819B810097C9F469
:10107000D7018C91882329F0F80180818F5F8083CC
:101080000BC00995D8018C9181508C938C819D81E6
:10109000892B11F4198218828C819D81009721F08F
:1010A00001C001979B838A832896085F1F4FB8E091
:1010B000EB0EF11CE2E0C83CDE0791F6FF91EF91E8
:1010C000DF91CF91BF91AF919F918F917F916F9160
:1010D0005F914F913F912F911F910F91FF90EF9052
:1010E0000F900FBE0F901F9018950F931F93FC0148
:1010F00042835383648375830681178120853185FC
:10110000040F151F261F371F028713872487358773
:101110001F910F9108950F931F93FC010285138572
:1011200024853585401B510B620B730B77FD02C084
:10113000808901C080E01F910F9108950F931F9344
:10114000CF93DF93EC01EE85FF85309709F0099589
:101150000E94750A6E837F83888799870A811B8125
:101160002C813D81060F171F281F391F0A871B87F7
:101170002C873D87DF91CF911F910F910895FC013E
:101180008DE491E09183808381E0808B778766870F
:101190001682178210861186F28BE18B22833383AD
:1011A00044835583228733874487558708950F9357
:1011B0001F93FC01468357836087718702811381E7
:1011C00024813581040F151F261F371F02871387BF
:1011D000248735871F910F910895FC0177876687D3
:1011E00008958F929F92AF92BF92CF92DF92EF922B
:1011F000FF920F931F93CF93DF93EC01EE85FF8552
:10120000309709F009950E94750A6B017C018E01E7
:101210005E012EE1A20EB11C812C912C89A99AA904
:101220008815990524F1D80153968D919C91549776
:101230000097C1F0BFEF8B1A9B0ADC01ED91FC9186
:101240000280F381E02DB701A6010995882351F0B2
:10125000F80183899489DC01ED91FC910480F5818A
:10126000E02D09950E5F1F4F0A151B05B9F60E9468
:10127000750AAB01BC01CE01DF91CF911F910F9197
:10128000FF90EF90DF90CF90BF90AF909F908F90A6
:101290000C94D70820E030E0FC01E20FF31F038834
:1012A000F489E02D309759F00188F289E02DDB01B7
:1012B00051964D915C915297E417F50719F12E5F05
:1012C0003F4F2E31310541F7FC0120E030E04389EA
:1012D0005489452B79F4F901EE0FFF1FE80FF91F30
:1012E000748B638BFC0121A932A92F5F3F4F32AB76
:1012F00021AB08C02F5F3F4F32962F30310539F7B1
:1013000080E0089581E0089520E030E0FC01E20FE4
:10131000F31F148A138A2E5F3F4F2E313105B1F728
:10132000FC0112AA11AA0895CF92DF92EF92FF92C8
:10133000CF93DF93EC016A017B0120E030E0A9014B
:1013400060E070E00E94BF0887E591E099838883A0
:101350001AAA19AACE010E948409E881F981019094
:10136000F081E02DB701A601CE01DF91CF91FF9072
:10137000EF90DF90CF90099408958230E8F4E82F41
:10138000F0E0EE0FFF1FE85DFE4F71836083813058
:1013900041F0809169008C7F842B80936900E89AEA
:1013A000089580916900440F551F440F551F837F96
:1013B000842B80936900E99A08951F920F920FB6CB
:1013C0000F9211242F933F934F935F936F937F93CB
:1013D0008F939F93AF93BF93EF93FF93E091280177
:1013E000F09129010995FF91EF91BF91AF919F91E4
:1013F0008F917F916F915F914F913F912F910F90BE
:101400000FBE0F901F9018951F920F920FB60F925C
:1014100011242F933F934F935F936F937F938F93F9
:101420009F93AF93BF93EF93FF93E0912A01F091C5
:101430002B010995FF91EF91BF91AF919F918F91F2
:101440007F916F915F914F913F912F910F900FBEC0
:101450000F901F9018951F920F920FB60F921124A4
:101460002F933F938F939F93AF93BF938091C90224
:101470009091CA02A091CB02B091CC023091C802E7
:1014800023E0230F2D3720F40196A11DB11D05C0C7
:1014900026E8230F0296A11DB11D2093C802809358
:1014A000C9029093CA02A093CB02B093CC02809160
:1014B000CD029091CE02A091CF02B091D0020196C0
:1014C000A11DB11D8093CD029093CE02A093CF02B7
:1014D000B093D002BF91AF919F918F913F912F9187
:1014E0000F900FBE0F901F9018952FB7F894609132
:1014F000C9027091CA028091CB029091CC022FBF99
:1015000008953FB7F8948091CD029091CE02A091BA
:10151000CF02B091D00226B5A89B05C02F3F19F08D
:101520000196A11DB11D3FBF6627782F892F9A2FE5
:10153000620F711D811D911D42E0660F771F881F8C
:10154000991F4A95D1F708958F929F92AF92BF92BB
:10155000CF92DF92EF92FF926B017C010E94810A91
:101560004B015C01C114D104E104F104F1F00E94CB
:1015700067100E94810A681979098A099B09683EE7
:1015800073408105910570F321E0C21AD108E1088A
:10159000F10888EE880E83E0981EA11CB11CC114CE
:1015A000D104E104F10429F7DDCFFF90EF90DF9043
:1015B000CF90BF90AF909F908F900895789484B50E
:1015C000826084BD84B5816084BD85B5826085BD3F
:1015D00085B5816085BDEEE6F0E080818160808325
:1015E000E1E8F0E010828081826080838081816008
:1015F0008083E0E8F0E0808181608083E1EBF0E0CF
:10160000808184608083E0EBF0E080818160808372
:10161000EAE7F0E08081846080838081826080835B
:101620008081816080838081806880831092C10086
:1016300008958E3008F08E50877020912C0190E430
:10164000299F90011124822B80937C0080917A0045
:10165000806480937A0080917A0086FDFCCF80912F
:1016600078002091790090E0922B0895833081F0EA
:1016700028F4813099F08230A1F008958730A9F0E4
:101680008830B9F08430D1F4809180008F7D03C020
:10169000809180008F7780938000089584B58F7744
:1016A00002C084B58F7D84BD08958091B0008F778E
:1016B00003C08091B0008F7D8093B0000895CF93D8
:1016C000DF9390E0FC01EE56FF4F2491FC01EA55B8
:1016D000FF4F8491882349F190E0880F991FFC0106
:1016E000E253FF4FA591B4918C539F4FFC01C591DC
:1016F000D4919FB7611108C0F8948C9120958223F2
:101700008C93888182230AC0623051F4F8948C91C2
:10171000322F309583238C938881822B888304C059
:10172000F8948C91822B8C939FBFDF91CF91089579
:101730000F931F93CF93DF931F92CDB7DEB7282F60
:1017400030E0F901E258FF4F8491F901EE56FF4F66
:101750001491F901EA55FF4F04910023C9F0882341
:1017600021F069830E94360B6981E02FF0E0EE0FD3
:10177000FF1FEC53FF4FA591B4919FB7F8948C9144
:10178000611103C01095812301C0812B8C939FBFF1
:101790000F90DF91CF911F910F910895CF93DF9319
:1017A000282F30E0F901E258FF4F8491F901EE56FD
:1017B000FF4FD491F901EA55FF4FC491CC2391F02A
:1017C00081110E94360BEC2FF0E0EE0FFF1FE65464
:1017D000FF4FA591B4912C912D2381E090E021F44D
:1017E00080E002C080E090E0DF91CF910895FC019D
:1017F000818D228D90E0805C9F4F821B91098F73B9
:1018000099270895FC01918D828D981731F0828D72
:10181000E80FF11D858D90E008958FEF9FEF0895FB
:10182000FC01918D828D981761F0828DDF01A80FE8
:10183000B11D5D968C91928D9F5F9F73928F90E00A
:1018400008958FEF9FEF089580EC90E1892B49F088
:1018500087E994E0892B29F00E94C01081110C9433
:1018600097040895FC01848DDF01A80FB11DA35AD0
:10187000BF4F2C91848D90E001968F739927848FB0
:10188000A689B7892C93A089B1898C9180648C93A7
:10189000938D848D981306C00288F389E02D808192
:1018A0008F7D80830895CF93DF93EC01888D88230B
:1018B000C9F0EA89FB89808185FD05C0A889B989BD
:1018C0008C9186FD0FC00FB607FCF5CF808185FF98
:1018D000F2CFA889B9898C9185FFEDCFCE010E9406
:1018E000320CE7CFDF91CF910895CF92DF92FF9234
:1018F0000F931F93CF93DF931F92CDB7DEB76C0189
:1019000081E0D60158968C9358975B969C915B9793
:101910005C968C915C97981307C05096ED91FC9162
:101920005197808185FD2EC0F601038D10E00F5F79
:101930001F4F0F731127F02EF601848DF81211C07E
:101940000FB607FCF9CFD6015096ED91FC91519757
:10195000808185FFF1CFC60169830E94320C6981C5
:10196000EBCF838DE80FF11DE35AFF4F6083D60163
:101970005B960C935B975296ED91FC915397808107
:1019800080620CC0D6015696ED91FC91579760830A
:101990005096ED91FC91519780818064808381E025
:1019A00090E00F90DF91CF911F910F91FF90DF900A
:1019B000CF900895BF92CF92DF92EF92FF92CF9394
:1019C000DF93EC016A017B01B22EE889F98982E09C
:1019D0008083411581EE580761057105A1F060E033
:1019E00079E08DE390E0A70196010E942313215036
:1019F0003109410951095695479537952795211584
:101A000080E1380798F0E889F989108260E874E885
:101A10008EE190E0A70196010E9423132150310925
:101A2000410951095695479537952795EC85FD85D0
:101A30003083EE85FF852083188EEC89FD89B08286
:101A4000EA89FB89808180618083EA89FB898081C2
:101A500088608083EA89FB89808180688083EA8945
:101A6000FB8980818F7D8083DF91CF91FF90EF9004
:101A7000DF90CF90BF90089508950E94DE0A0E94E3
:101A80003C0D0E947601C4E2DCE00E94D70320975F
:101A9000E1F30E94240CF9CFCF92DF92EF92FF92F4
:101AA0000F931F93CF93DF937C016A01EB0100E05A
:101AB00010E00C151D0571F06991D701ED91FC91B5
:101AC0000190F081E02DC7010995892B19F00F5F76
:101AD0001F4FEFCFC801DF91CF911F910F91FF9062
:101AE000EF90DF90CF9008956115710581F0DB01D3
:101AF0000D900020E9F7AD0141505109461B570BED
:101B0000DC01ED91FC910280F381E02D099480E0ED
:101B100090E00895DC01ED91FC91DB0114964D916C
:101B20005C9115976D917C910280F381E02D099471
:101B30000C94740DDC01ED91FC910190F081E02D8D
:101B400009946DE671E00C94740D0F931F93CF937D
:101B5000DF93EC010E948A0D8C01CE010E94A10D41
:101B6000800F911FDF91CF911F910F9108950F93D7
:101B70001F93CF93DF93EC010E949A0D8C01CE014D
:101B80000E94A10D800F911FDF91CF911F910F91A6
:101B900008958F929F92AF92BF92DF92EF92FF9241
:101BA0000F931F93CF93DF93CDB7DEB7A1970FB6F7
:101BB000F894DEBF0FBECDBF7C01F42FD52ECB0134
:101BC00019A2223008F42AE08E010F5D1F4F822EE9
:101BD000912CA12CB12C6F2F7D2DA50194010E9479
:101BE0002313F22FD32ECA01015011096A3014F4C5
:101BF000E0E301C0E7E3E60FD801EC93232B242BAD
:101C0000252B49F7B801C7010E94740DA1960FB6A4
:101C1000F894DEBF0FBECDBFDF91CF911F910F9122
:101C2000FF90EF90DF90BF90AF909F908F900895BE
:101C3000CF92DF92EF92FF920F931F93CF93DF9398
:101C4000EC016A017B012115310579F4E881F98104
:101C50000190F081E02D642FDF91CF911F910F91C2
:101C6000FF90EF90DF90CF9009942A303105E9F48E
:101C700077FF1AC06DE20E949A0D8C014427552708
:101C8000BA014C195D096E097F092AE0CE010E9454
:101C9000C90D800F911FDF91CF911F910F91FF9080
:101CA000EF90DF90CF9008952AE0B701A601CE0112
:101CB000DF91CF911F910F91FF90EF90DF90CF9028
:101CC0000C94C90D9A01AB01662757FD6095762FDC
:101CD0000C94180E2115310541F4DC01ED91FC91B5
:101CE0000190F081E02D642F09940C94C90D9A01A4
:101CF000AB0160E070E00C946A0E0F931F93CF93DA
:101D0000DF93EC010E94750A688779878A879B8731
:101D1000E881F9810084F185E02DCE01099597FFD6
:101D200015C00E94750A088519852A853B85601BA8
:101D3000710B820B930B0C811D812E813F816017EB
:101D400071078207930720F38FEF9FEFDF91CF9109
:101D50001F910F910895FF920F931F93CF93DF93DD
:101D6000EC018B01F42ECE010E947D0E9C0197FDAB
:101D700028C08D32910519F1C0970A9710F1FF2004
:101D800019F02E323105F9F001301105F9F0023069
:101D9000110569F42D30310551F034F42950310921
:101DA0002230310520F012C02032310579F4E8816B
:101DB000F9810680F781E02DCE010995D4CF8DE21F
:101DC00003C0C90105C08EE290E002C08FEF9FEF13
:101DD000DF91CF911F910F91FF900895CF92DF92E5
:101DE000FF920F931F93CF93DF9300D000D0CDB716
:101DF000DEB76C01042F40E00E94AB0EFC0197FDA2
:101E00004BC020E030E0A901F12C112707FD10950F
:101E1000E017F107E9F0ED32F105C1F0CF01C0970D
:101E20000A97B0F4AAE0B0E00E945A139B01AC01FB
:101E3000CF01AA2797FDA095BA2F280F391F4A1F57
:101E40005B1F205331094109510902C0FF24F3945B
:101E5000D601ED91FC910680F781E02DC601298322
:101E60003A834B835C830995C6010E947D0EFC0179
:101E7000C09729813A814B815C810A9748F2E0172B
:101E8000F10731F2FF2061F066277727CB01621B53
:101E9000730B840B950B06C060E070E0CB0102C0B1
:101EA000CA01B9010F900F900F900F90DF91CF9161
:101EB0001F910F91FF90DF90CF900895FC018081DA
:101EC00091810C94AA11CF93DF93EC0188819981C1
:101ED000009711F00E94AA11198218821D821C829B
:101EE0001B821A82DF91CF9108950F931F93CF9396
:101EF000DF93EC018B016F5F7F4F888199810E9496
:101F00004212009731F0998388831B830A8381E012
:101F100001C080E0DF91CF911F910F910895CF9381
:101F2000DF93EC0188819981892B29F08A819B813B
:101F30008617970760F4CE010E94750F882341F041
:101F40008C819D81892B19F4E881F981108281E0CF
:101F5000DF91CF910895EF92FF920F931F93CF934C
:101F6000DF93EC017B018A01BA010E948F0F81117E
:101F700004C0CE010E94630F07C01D830C83B7010C
:101F8000888199810E946E13CE01DF91CF911F91BC
:101F90000F91FF90EF900895FC011182108213823F
:101FA0001282158214826115710559F0FB010190AE
:101FB0000020E9F7AF0141505109461B570B0C9423
:101FC000AB0F0895CF93DF93EC016115710561F0BC
:101FD000FB0101900020E9F7AF0141505109461B78
:101FE000570B0E94AB0F02C00E94630FCE01DF911E
:101FF000CF910895EF92FF920F931F93CF93DF93AA
:10200000EC017B010C811D816115710511F480E0EB
:1020100016C04115510591F0040F151FB8010E941B
:102020008F0F8823A1F3288139818C819D81B7018D
:10203000820F931F0E946E131D830C8381E0DF913A
:10204000CF911F910F91FF90EF9008956115710549
:1020500059F0FB0101900020E9F7AF01415051090F
:10206000461B570B0C94FA0F80E00895EF92FF92F5
:102070000F931F93CF93DF93CDB7DEB728970FB69B
:10208000F894DEBF0FBECDBF7C01CB014AE08E01CC
:102090000F5F1F4FB8010E947513F80101900020D7
:1020A000E9F7AF0141505109401B510BB801C7017D
:1020B0000E94FA0F28960FB6F894DEBF0FBECDBF70
:1020C000DF91CF911F910F91FF90EF9008950895A8
:1020D0001F920F920FB60F9211242F938F939F93FD
:1020E000EF93FF93E091E102F091E2028081E091B1
:1020F000E702F091E80282FD12C090818091EA022D
:102100008F5F8F732091EB02821751F0E091EA020A
:10211000F0E0EF52FD4F958F8093EA0201C080817D
:10212000FF91EF919F918F912F910F900FBE0F9084
:102130001F9018951F920F920FB60F9211242F9394
:102140003F934F935F936F937F938F939F93AF933F
:10215000BF93EF93FF9381ED92E00E94320CFF91C9
:10216000EF91BF91AF919F918F917F916F915F910F
:102170004F913F912F910F900FBE0F901F90189588
:1021800081ED92E00E94F70B21E0892B09F420E019
:10219000822F08951092D4021092D30288EE93E019
:1021A000A0E0B0E08093D5029093D602A093D7022E
:1021B000B093D80281E691E09093D2028093D1024D
:1021C00085EC90E09093DE028093DD0284EC90E059
:1021D0009093E0028093DF0280EC90E09093E20223
:1021E0008093E10281EC90E09093E4028093E3021B
:1021F00082EC90E09093E6028093E50286EC90E01A
:102200009093E8028093E7021092EA021092EB02A8
:102210001092EC021092ED0208950F931F93CF934A
:10222000DF93BC018230910510F462E070E0E09130
:102230007003F091710340E050E0A0E0B0E024C0F2
:102240008081918186179707D0F08617970771F4E0
:1022500082819381109729F013969C938E93129705
:102260002CC0909371038093700327C041155105D2
:1022700019F08417950718F48D01AC01EF01DF0107
:10228000828193819C01F9013097D1F64115510566
:10229000F9F0CA01861B970B8430910580F48A817E
:1022A0009B810115110521F0F8019383828304C0FD
:1022B0009093710380937003FE01329645C0FE0136
:1022C000E80FF91F619371930297998388833CC04B
:1022D00080916E0390916F03892B41F480912F01BF
:1022E0009091300190936F0380936E034091310180
:1022F000509132014115510541F44DB75EB78091BF
:102300002D0190912E01481B590B20916E033091A5
:102310006F0324173507B0F4CA01821B930B86178D
:10232000970780F0AB014E5F5F4F8417950750F021
:10233000420F531F50936F0340936E03F901619353
:10234000719302C0E0E0F0E0CF01DF91CF911F91E7
:102350000F910895CF93DF939C01009709F48FC0EC
:10236000EC0122971B821A826091700370917103B5
:102370006115710581F488819981820F931F2091E5
:102380006E0330916F032817390739F5D0936F0327
:10239000C0936E0374C0DB0140E050E0AC17BD0792
:1023A00008F1BB83AA83FE0121913191E20FF31F53
:1023B000AE17BF0779F48D919C911197280F391FA3
:1023C0002E5F3F4F3983288312968D919C911397EE
:1023D0009B838A834115510571F4D0937103C09397
:1023E00070034DC012968D919C911397AD0100978B
:1023F00011F0DC01D3CFDA011396DC93CE93129760
:10240000FA0121913191E20FF31FCE17DF0769F432
:1024100088819981280F391F2E5F3F4FFA01318340
:1024200020838A819B8193838283E0E0F0E0DB015B
:1024300012968D919C911397009719F0BC01FD01A4
:10244000F6CFAB014E5F5F4FDB018D919C91840F06
:10245000951F20916E0330916F032817390779F487
:10246000309729F4109271031092700302C0138206
:1024700012824250504050936F0340936E03DF919D
:10248000CF9108956F927F928F929F92AF92BF9259
:10249000CF92DF92EF92FF920F931F93CF93DF9330
:1024A0008C01009729F4CB010E940D118C01BBC057
:1024B0008EEFE82E8FEFF82EE00EF11E4801860E0B
:1024C000971E8E149F0408F4ACC0D7014D915C9107
:1024D000119746175707B8F04530510508F4A3C0C7
:1024E000CA0104978617970708F49DC042505040D0
:1024F000461B570BF401419351936D937C93CF018D
:102500000E94AA1190C05B01A41AB50A3801640E9A
:10251000751EA0917003B0917103E0E0F0E0CC244F
:10252000DD2447C0A615B705A9F5CD91DC9111971B
:10253000CE0102968A159B0568F1CE018A199B0986
:10254000029612962C91129713963C91059758F08B
:10255000F40122833383CA19DB09D183C083D701F5
:102560006D937C9309C04E5F5F4F4C0F5D1FF70169
:1025700051834083C901FC01C114D10431F0D6015B
:102580001396FC93EE9312974EC0F0937103E09371
:10259000700349C08D919C911197E817F90708F4D1
:1025A000FC016D0112968C91129713969C919C01DF
:1025B000D901109709F0B6CF80916E0390916F0307
:1025C00086159705E9F4E617F707D0F42091310155
:1025D000309132012115310541F42DB73EB780917C
:1025E0002D0190912E01281B390B82169306C8F4F9
:1025F00090926F0380926E03F7017183608313C022
:10260000CB010E940D11EC01009759F0D7014D91BB
:102610005C91B8010E946513C8010E94AA118E0145
:1026200002C000E010E0C801DF91CF911F910F912F
:10263000FF90EF90DF90CF90BF90AF909F908F90E2
:102640007F906F900895A1E21A2EAA1BBB1BFD017B
:102650000DC0AA1FBB1FEE1FFF1FA217B307E40781
:10266000F50720F0A21BB30BE40BF50B661F771FD9
:10267000881F991F1A9469F76095709580959095B9
:102680009B01AC01BD01CF010895EE0FFF1F059026
:10269000F491E02D0994A29FB001B39FC001A39FC4
:1026A000700D811D1124911DB29F700D811D11248B
:1026B000911D08950E944B13A59F900DB49F900DFE
:1026C000A49F800D911D11240895FB01DC0102C01F
:1026D00001900D9241505040D8F70895FB01DC0164
:1026E00001900D920020E1F70895BB274A3031F4A4
:1026F000992322F4BDE2909581959F4F0C9481130C
:10270000BB27FB015527AA27880F991FAA1FA417CB
:1027100010F0A41B83955051B9F7A05DAA3308F0BF
:10272000A95DA193009779F7B111B1931192CB01F3
:102730000C949A13DC01FC01672F71917723E1F768
:10274000329704C07C916D9370836291AE17BF077E
:10275000C8F3089510E0CEEDD0E004C0FE010E9461
:0E27600047132296C03ED107C9F7F894FFCF69
:10276E00000001000200030004000E00020005003C
:10277E000600070008000900100003000D000C0001
:10278E000B000A0094D4A4E4BC09BC0901800072B9
:10279E000300000000010000000000010000000026
:1027AE00000100010000002C000000000075088BE5
:1027BE00089E080000000075088B08F10800000054
:1027CE0000750C4C0DF70B100C020C530C0D0A007F
:0E27DE006E616E00696E66006F7666002E00FA
:00000001FF
