:100000000C9471000C94680A0C948F0A0C9499005B
:100010000C9499000C9499000C9499000C949900FC
:100020000C9499000C9499000C9499000C949C08E1
:100030000C9499000C9499000C9499000C949900DC
:100040000C94B60A0C9499000C94060E0C94380E7D
:100050000C9499000C9499000C9499000C949900BC
:100060000C9499000C949900BF04C204E704CC04DA
:10007000C904FB04D304D604DD04E004EA04EF045D
:100080000000000800020100000304070000000057
:100090000000000001020408102040800102040852
:1000A00010200102040810200404040404040404C1
:1000B0000202020202020303030303030000000022
:1000C00023002600290000000000250028002B0046
:1000D00000000000240027002A00D9008607680ECF
:1000E000180111241FBECFEFD8E0DEBFCDBF11E055
:1000F000A0E0B1E0E6E2F9E202C005900D92A2367E
:10010000B107D9F723E0A2E6B1E001C01D92A43304
:10011000B207E1F710E0C0EED0E004C02297FE0184
:100120000E94FB11CA3DD107C9F70E94AC0E0C9486
:1001300086140C9400008CED91E00C94D8078BEBA6
:1001400091E00C94D807BC0189E092E00E94A511CF
:100150006BE271E089E092E00C9495118130910599
:1001600019F480910A0104C0029721F480910E01D4
:100170000C94A40B80E090E00895682F85E192E054
:100180000E94730585E192E00C94970581309105FA
:1001900019F0029721F00895CB010C94A30083E09D
:1001A00092E00E94A5116BE271E083E092E00C9472
:1001B000951163E571E089E092E00E943B1163E5EF
:1001C00071E083E092E00E943B1160910C0160932A
:1001D000FE01809110018093FD0120E030E040E0BD
:1001E0005BE08CED91E00E94CF0720E030E040E042
:1001F0005BE06091FD018BEB91E00E94CF0720E076
:1002000030E0A90160E070E088EA91E00E944A09CC
:1002100020E030E0A90160E070E085E991E00E9413
:100220004A0940E050E0BA0182E691E00C941F0ACE
:1002300083E092E00E94CD1089E092E00C94CD1012
:1002400026E040E052EC61E070E083E992E00E9439
:10025000A40D8AE192E00E94A70586E091E00E9449
:10026000670885E192E00E943C056FE771E088EA4B
:1002700091E00E94780941E050E060E070E088EA97
:1002800091E00E94000965E572E085E991E00E9435
:10029000780941E050E060E070E085E991E00E947B
:1002A000000968EA71E082E691E00E94D50965E9FB
:1002B00071E082E691E00E94D5098091FE018230D2
:1002C00021F0833021F481E003C080E001C08FEF92
:1002D00041E050E06BE970E00E94480A8091FD0126
:1002E000823021F0833021F481E003C080E001C03E
:1002F0008FEF41E050E06FE970E00C94480A8AE12A
:1003000092E00E94BF06099709F0C2C080910F02D7
:1003100090911002843691050CF0C6C08AE192E0FB
:100320000E94B306019761F58AE192E00E94BB0644
:100330000797C1F48AE192E00E94B706059731F46D
:1003400080911A010E94BD000E94A3008AE192E000
:100350000E94B706049731F4809106010E94A40B15
:100360000E94A3008AE192E00E94BB06089709F070
:1003700085C080910A010E94A40B0E94A3007EC048
:100380008AE192E00E94B306029761F58AE192E069
:100390000E94BB060797F1F48AE192E00E94B7063B
:1003A000059749F480911C010E94BD00BC0182E0C8
:1003B00090E00E94C6008AE192E00E94B70604978E
:1003C00049F4809108010E94A40BBC0182E090E0F6
:1003D0000E94C6008AE192E00E94BB06089709F0DD
:1003E0004DC043C08AE192E00E94B306039709F032
:1003F00045C08AE192E00E94BB06079751F58AE169
:1004000092E00E94B706059779F480911A010E9444
:10041000BD000E94A30080911C010E94BD00BC0190
:1004200082E090E00E94C6008AE192E00E94B70656
:10043000049779F4809106010E94A40B0E94A30006
:10044000809108010E94A40BBC0182E090E00E9410
:10045000C6008AE192E00E94BB06089779F4809179
:100460000A010E94A40B0E94A30082E090E00E9477
:10047000AE00BC0182E090E00E94C60080910F02B5
:100480009091100201969093100280930F020895AC
:10049000109296021092950283E992E00E941D0D3F
:1004A0001092100210920F020895EF92FF920F9394
:1004B0001F93CF93DF9380910F02909110028436A7
:1004C000910509F017C18AE192E00E94B3067C0110
:1004D0008AE192E00E94B7068C018AE192E00E94D4
:1004E000BB06EC0182E0E816F10409F4A1C083E048
:1004F000E816F10409F44AC0EA94EF2809F0EAC0CA
:100500004AE050E061E070E083E992E00E94D10FA0
:100510006BE271E083E992E00E94070F4AE050E04D
:10052000B80183E992E00E94D10F6BE271E083E9A8
:1005300092E00E94070F4AE050E0BE0183E992E09A
:100540000E94D10F6BE271E083E992E00E94070FF5
:1005500060910102709102024AE050E083E992E06A
:100560000E94E60F6BE271E083E992E00E94070FC0
:1005700063E583E992E00E94090F6BE271E083E991
:1005800092E00E94070F69E072E097C04AE050E0F5
:1005900061E070E083E992E00E94D10F6BE271E0CC
:1005A00083E992E00E94070F4AE050E0B80183E936
:1005B00092E00E94D10F6BE271E083E992E00E9429
:1005C000070F4AE050E0BE0183E992E00E94D10F9C
:1005D0006BE271E083E992E00E94070F60910102F3
:1005E000709102024AE050E083E992E00E94E60F37
:1005F0006BE271E083E992E00E94070F63E583E913
:1006000092E00E94090F6BE271E083E992E00E94A0
:10061000070F69E072E083E992E00E94F90E65E459
:1006200083E992E00E94260F83E992E00E941D0D6B
:100630004AE050E062E070E083E992E00E94D10F6E
:100640006BE271E083E992E00E94070F4AE050E01C
:10065000B80183E992E00E94D10F6BE271E083E977
:1006600092E00E94070F4AE050E0BE0183E992E069
:100670000E94D10F6BE271E083E992E00E94070FC4
:100680006091FF01709100024AE050E083E992E03E
:100690000E94E60F6BE271E083E992E00E94070F8F
:1006A00063E583E992E00E94090F6BE271E083E960
:1006B00092E00E94070F63E072E083E992E00E94FB
:1006C000F90E65E483E992E00E94260F83E992E047
:1006D0000E941D0D63E571E089E092E00E945111D6
:1006E00063E571E083E092E00E94511110921002E4
:1006F00010920F02DF91CF911F910F91FF90EF9019
:100700000895CF92DF92EF92FF920F931F93CF93B2
:10071000DF9300D000D000D0CDB7DEB78AE192E001
:100720000E94B3066C018AE192E00E94B7067C0148
:100730008AE192E00E94BB068C0163E571E0CE0184
:1007400001960E943B11B601CE0101960E94A511AF
:100750006BE271E0CE0101960E949511B701CE01C6
:1007600001960E94A5116BE271E0CE0101960E94F4
:100770009511B801CE0101960E94A511BE016F5FCF
:100780007F4F83E992E00E94140F83E992E00E9478
:100790001D0DCE0101960E94CD1026960FB6F8943D
:1007A000DEBF0FBECDBFDF91CF911F910F91FF90A4
:1007B000EF90DF90CF90089582E691E00E947C094F
:1007C0008AE192E00E94BF06099709F0B4C08AE16D
:1007D00092E00E94BB06079709F0ADC08AE192E063
:1007E0000E94B706059709F07BC08AE192E00E945B
:1007F000B306039709F040C08CED91E00E943D08DC
:100800008823D1F08091E8019091E901A091EA015B
:10081000B091EB018135934CA105B10538F461E04D
:1008200070E08CED91E00E94410802C060E070E051
:1008300070930202609301028BEB91E00E943D08ED
:100840008823D1F08091C7019091C801A091C9017E
:10085000B091CA018135934CA105B10538F461E02E
:1008600070E08BEB91E00E94410802C060E070E014
:10087000709300026093FF018AE192E00E94B30648
:10088000019709F58CED91E00E943D088823D9F08D
:100890008091E8019091E901A091EA01B091EB010A
:1008A0008135934CA105B10520F561E070E08CED38
:1008B00091E00E944108709302026093010210923D
:1008C00000021092FF018AE192E00E94B3060297B3
:1008D00091F58BEB91E00E943D0881110DC00895C8
:1008E0001092020210920102109200021092FF0177
:1008F000089560E070E0DFCF8091C7019091C8015A
:10090000A091C901B091CA018135934CA105B105EF
:1009100078F461E070E08BEB91E00E944108709305
:1009200000026093FF0110920202109201020895EA
:1009300060E070E0F4CF0895CF93DF9310929602B9
:100940001092950283E992E00E94C10C892B69F014
:1009500041E060E070E083E992E00E945D10EB010D
:1009600083E992E00E941D0DEDCFFE013197EC303E
:10097000F10508F040C0EC5CFF4F0C94F91161E008
:1009800070E002C062E070E08AE192E00E946207DB
:1009900032C065E070E002C064E070E08AE192E09D
:1009A0000E946B0728C067E070E002C068E070E05A
:1009B0008AE192E00E9474071EC069E070E002C004
:1009C0006AE070E08AE192E00E947D0714C063E073
:1009D00070E0DACF8AE192E00E949A060CC061E0F2
:1009E00070E08AE192E00E94820662E070E08AE1B3
:1009F00092E00E948206DF91CF910C948103CF9305
:100A0000CFB7F89480911402811127C0E2EBF0E097
:100A10008491EEE9F0E09491E82FF0E0EE0FFF1FF3
:100A2000E053FF4FA591B4918C91892321F461E0AB
:100A30008AE00E94230C61E08AE00E94EA0B8CB5F8
:100A400080618CBD8CB580648CBD61E08DE00E94BE
:100A5000EA0B61E08BE00E94EA0B809114028F5F49
:100A600080931402CFBFCF9108958EBD00000DB4C6
:100A700007FEFDCF8EB5089561E0809118010E94B8
:100A8000EA0B61E0809116010E94EA0B60E0809120
:100A900014010E94EA0B61E0809112010E94EA0BAE
:100AA00061E0809118010E94230C0E94FF04809154
:100AB0001302882399F09FB7F89480911302813034
:100AC00059F48DB3809311022DB380911202809559
:100AD00082238DBB9FBF02C09093110281E58CBD24
:100AE00081E08DBD08951F93CF93DF93162FC8E14A
:100AF000D1E060E088810E94230C812F0E9435059F
:100B000080E00E94350590E09093170280931602D2
:100B100080E00E94350590E09093190280931802BE
:100B200061E08881DF91CF911F910C94230C20E02C
:100B300030E0309116028091180290911902822BB8
:100B4000932B23E0959587952A95E1F7089581E009
:100B500090E090931B0280931A0284E090E09093BF
:100B60001D0280931C0287E090E090931F02809307
:100B70001E028AE090E09093210280932002089563
:100B8000DF92EF92FF920F931F93CF93DF93D82EB4
:100B9000CEE1D1E060E088810E94230C80E2E82E63
:100BA00081E0F82E02E211E020E041E0F7016081EF
:100BB000F80180810E94820C2D2D41E0F7016081B7
:100BC000F80180810E94820C61E08881DF91CF91E1
:100BD0001F910F91FF90EF90DF900C94230CCF9218
:100BE000DF92EF92FF920F931F93CF93DF931F92A9
:100BF000CDB7DEB7282F9EE1C92E91E0D92E60E057
:100C0000F601808129830E94230C20E2E22E21E05C
:100C1000F22E02E211E0298141E0F7016081F80142
:100C200080810E94820C20E041E0F7016081F801A0
:100C300080810E94820C61E0F60180810F90DF913B
:100C4000CF911F910F91FF90EF90DF90CF900C9478
:100C5000230CAF92BF92DF92EF92FF920F931F93FC
:100C6000CF93DF931F92CDB7DEB7D82E262F3EE16C
:100C7000A32E31E0B32E60E0F501808129830E942C
:100C8000230C40E2E42E41E0F42E02E211E029813F
:100C900041E0F7016081F80180810E94820C2D2DD6
:100CA00041E0F7016081F80180810E94820C61E0DF
:100CB000F50180810F90DF91CF911F910F91FF90EF
:100CC000EF90DF90BF90AF900C94230CCB010E946B
:100CD000C0056AE070E080E090E00C942F0BCB013F
:100CE0000E94EF056AE070E080E090E00C942F0B2A
:100CF000CB01BA010E9429066AE070E080E090E032
:100D00000C942F0B6130710531F4FC0186899789B1
:100D10000E94C00508C06230710559F4FC01868943
:100D200097890E94EF056AE070E080E090E00C9403
:100D30002F0B089581E090E090931B0280931A029C
:100D400084E090E090931D0280931C0287E090E085
:100D500090931F0280931E028AE090E090932102FC
:100D6000809320020895FC01808191810895FC0107
:100D7000828193810895FC01848195810895FC010D
:100D8000868197810895CF93DF93EC0180911A02B9
:100D900090911B028130910561F562E070E0CE0117
:100DA0000E94820680911E0290911F028730910559
:100DB000C1F480911C0290911D028430910529F4A8
:100DC000609122027091230207C0059709F077C055
:100DD0006091240270912502CE01DF91CF910C9495
:100DE0006606089709F06BC0609126027091270291
:100DF000F3CF8230910581F58E899F890E94C005CD
:100E00006AE070E080E090E00E942F0B80911E026B
:100E100090911F0287309105A1F480911C0290915E
:100E20001D028430910529F46091280270912902F5
:100E30000EC0059709F043C060912A0270912B0201
:100E400006C00897E1F560912C0270912D02CE0149
:100E5000DF91CF910C946F06039789F580911E0264
:100E600090911F0287309105D9F480911C029091D6
:100E70001D028430910549F44091280250912902C5
:100E8000609122027091230215C00597C1F4409130
:100E90002A0250912B0260912402709125020AC00F
:100EA000089769F440912C0250912D02609126021E
:100EB00070912702CE01DF91CF910C947806DF91DB
:100EC000CF910895FC017183608370933302609326
:100ED00032020C94C306FC01738362837093350263
:100EE000609334020C94C306FC0175836483709391
:100EF0003702609336020C94C306FC017783668345
:100F000070933902609338020C94C3068FEF9FEF01
:100F100090931B0280931A0290931D0280931C02EF
:100F200090931F0280931E029093210280932002CF
:100F300062E070E0709323026093220244E250E08A
:100F4000509325024093240228E130E03093270299
:100F500020932602709329026093280250932B025B
:100F600040932A0230932D0220932C0210922F02DC
:100F700010922E021092310210923002909333029E
:100F8000809332029093350280933402909337021B
:100F90008093360290933902809338020895FC01C1
:100FA000328F218F648F50A3478F8EEF838F0895E8
:100FB0000F931F93CF93DF93EC01EF8DF8A1099569
:100FC000698B7A8B8B8B9C8B0D891E892F89388D31
:100FD000DC01CB01801B910BA20BB30B8C879D878F
:100FE000AE87BF878C8D0E94590CE1E0892B09F4F4
:100FF000E0E0E88B8D8DE81302C080E039C04C85BD
:101000005D856E857F85098D1A8D20E030E004179F
:1010100015072607370788F78B8D8F5F8B8FED8F2E
:1010200009891A892B893C890D8B1E8B2F8B388F50
:10103000EE2329F0488759876A877B8704C04C8351
:101040005D836E837F838230C4F2488559856A85CB
:101050007B850C811D812E813F81400F511F621FB6
:10106000731F488359836A837B831B8E81E08E8F35
:10107000DF91CF911F910F910895FC01868D168EFF
:101080000895CF92DF92EF92FF929B01FC01478D72
:1010900050A1C080D180E280F3804C505B4041F48D
:1010A000DB0120E432E44FE050E00E940E1204C065
:1010B000A8EEB3E00E94FF11A70196010E94D7118C
:1010C000CA01B901FF90EF90DF90CF900895CF93C0
:1010D000DF93EC0161E0888D0E94EA0B61E08A8D6C
:1010E0000E94EA0B61E08C8D0E94EA0B61E0888D22
:1010F0000E94230C60E08C810E94EA0B60E08E81EC
:101100000E94EA0B60E088850E94EA0B60E08A8515
:101110000E94EA0B61E08E8D0E94EA0B61E08E8DE9
:101120000E94230C60E088810E94EA0B60E08A81C3
:10113000DF91CF910C94EA0B1F920F920FB60F9292
:101140001124EF92FF920F931F932F933F934F938E
:101150005F936F937F938F939F93AF93BF93CF933F
:10116000DF93EF93FF93CAE3D2E000E412E041E49F
:10117000E42E42E0F42EE881F981309701F18A8172
:101180009B810097C9F4D7018C91882329F0F8013D
:1011900080818F5F80830BC00995D8018C9181502D
:1011A0008C938C819D81892B11F4198218828C81FA
:1011B0009D81009721F001C001979B838A83289627
:1011C000085F1F4FB8E0EB0EF11CE2E0CA38DE0703
:1011D00091F6FF91EF91DF91CF91BF91AF919F91E8
:1011E0008F917F916F915F914F913F912F911F91BF
:1011F0000F91FF90EF900F900FBE0F901F901895DA
:101200000F931F93FC01428353836483758306818C
:10121000178120853185040F151F261F371F028770
:101220001387248735871F910F9108950F931F937C
:10123000FC010285138524853585401B510B620B0B
:10124000730B77FD02C0808901C080E01F910F9170
:1012500008950F931F93CF93DF93EC01EE85FF85E5
:10126000309709F009950E94000B6E837F83888771
:1012700099870A811B812C813D81060F171F281F2A
:10128000391F0A871B872C873D87DF91CF911F91DC
:101290000F910895FC0181E391E09183808381E0C7
:1012A000808B778766871682178210861186F28B6D
:1012B000E18B22833383448355832287338744879A
:1012C000558708950F931F93FC01468357836087CA
:1012D00071870281138124813581040F151F261F18
:1012E000371F02871387248735871F910F91089531
:1012F000FC017787668708958F929F92AF92BF9285
:10130000CF92DF92EF92FF920F931F93CF93DF93D1
:10131000EC01EE85FF85309709F009950E94000BDE
:101320006B017C018E015E012EE1A20EB11C812CAD
:10133000912C89A99AA98815990524F1D801539669
:101340008D919C9154970097C1F0BFEF8B1A9B0A27
:10135000DC01ED91FC910280F381E02DB701A60143
:101360000995882351F0F80183899489DC01ED9176
:10137000FC910480F581E02D09950E5F1F4F0A1541
:101380001B05B9F60E94000BAB01BC01CE01DF9139
:10139000CF911F910F91FF90EF90DF90CF90BF9072
:1013A000AF909F908F900C94620920E030E0FC0198
:1013B000E20FF31F0388F489E02D309759F001887C
:1013C000F289E02DDB0151964D915C915297E41723
:1013D000F50719F12E5F3F4F2E31310541F7FC0122
:1013E00020E030E043895489452B79F4F901EE0F70
:1013F000FF1FE80FF91F748B638BFC0121A932A931
:101400002F5F3F4F32AB21AB08C02F5F3F4F32966B
:101410002F30310539F780E0089581E0089520E00C
:1014200030E0FC01E20FF31F148A138A2E5F3F4F56
:101430002E313105B1F7FC0112AA11AA0895CF92FD
:10144000DF92EF92FF92CF93DF93EC016A017B0171
:1014500020E030E0A90160E070E00E944A098BE3DF
:1014600091E0998388831AAA19AACE010E940F0AD3
:10147000E881F9810190F081E02DB701A601CE014C
:10148000DF91CF91FF90EF90DF90CF900994089576
:101490008230E8F4E82FF0E0EE0FFF1FEA5DFE4F28
:1014A00071836083813041F0809169008C7F842B4F
:1014B00080936900E89A089580916900440F551F50
:1014C000440F551F837F842B80936900E99A089508
:1014D0001F920F920FB60F9211242F933F934F93A9
:1014E0005F936F937F938F939F93AF93BF93EF938C
:1014F000FF93E0912601F09127010995FF91EF916B
:10150000BF91AF919F918F917F916F915F914F911B
:101510003F912F910F900FBE0F901F9018951F9223
:101520000F920FB60F9211242F933F934F935F9317
:101530006F937F938F939F93AF93BF93EF93FF939B
:10154000E0912801F09129010995FF91EF91BF9158
:10155000AF919F918F917F916F915F914F913F914B
:101560002F910F900FBE0F901F9018951F920F9202
:101570000FB60F9211242F933F938F939F93AF93A6
:10158000BF9380918B0290918C02A0918D02B091BB
:101590008E0230918A0223E0230F2D3720F401962A
:1015A000A11DB11D05C026E8230F0296A11DB11D86
:1015B00020938A0280938B0290938C02A0938D02D9
:1015C000B0938E0280918F0290919002A09191022F
:1015D000B09192020196A11DB11D80938F0290934C
:1015E0009002A0939102B0939202BF91AF919F910C
:1015F0008F913F912F910F900FBE0F901F901895D4
:101600002FB7F89460918B0270918C0280918D02BB
:1016100090918E022FBF08953FB7F89480918F026A
:1016200090919002A0919102B091920226B5A89B50
:1016300005C02F3F19F00196A11DB11D3FBF6627C0
:10164000782F892F9A2F620F711D811D911D42E005
:10165000660F771F881F991F4A95D1F708958F92BB
:101660009F92AF92BF92CF92DF92EF92FF926B0167
:101670007C010E940C0B4B015C01C114D104E104FC
:10168000F104F1F00E94D6110E940C0B681979093F
:101690008A099B09683E73408105910570F321E03A
:1016A000C21AD108E108F10888EE880E83E0981E7E
:1016B000A11CB11CC114D104E104F10429F7DDCF50
:1016C000FF90EF90DF90CF90BF90AF909F908F9062
:1016D0000895789484B5826084BD84B5816084BDAA
:1016E00085B5826085BD85B5816085BDEEE6F0E09B
:1016F000808181608083E1E8F0E0108280818260F7
:101700008083808181608083E0E8F0E08081816077
:101710008083E1EBF0E0808184608083E0EBF0E0A7
:10172000808181608083EAE7F0E08081846080834B
:1017300080818260808380818160808380818068F5
:1017400080831092C10008958E3008F08E5087700B
:1017500020912A0190E4299F90011124822B8093EB
:101760007C0080917A00806480937A0080917A0076
:1017700086FDFCCF809178002091790090E0922B3B
:101780000895833081F028F4813099F08230A1F0FF
:1017900008958730A9F08830B9F08430D1F4809171
:1017A00080008F7D03C0809180008F7780938000C0
:1017B000089584B58F7702C084B58F7D84BD089568
:1017C0008091B0008F7703C08091B0008F7D8093AF
:1017D000B0000895CF93DF9390E0FC01EC56FF4FEB
:1017E0002491FC01E855FF4F8491882349F190E052
:1017F000880F991FFC01E053FF4FA591B4918A53C4
:101800009F4FFC01C591D4919FB7611108C0F89416
:101810008C91209582238C93888182230AC0623028
:1018200051F4F8948C91322F309583238C938881D6
:10183000822B888304C0F8948C91822B8C939FBF59
:10184000DF91CF9108950F931F93CF93DF931F9252
:10185000CDB7DEB7282F30E0F901E058FF4F849173
:10186000F901EC56FF4F1491F901E855FF4F04912F
:101870000023C9F0882321F069830E94C10B69818C
:10188000E02FF0E0EE0FFF1FEA53FF4FA591B49158
:101890009FB7F8948C91611103C01095812301C00A
:1018A000812B8C939FBF0F90DF91CF911F910F9150
:1018B0000895CF93DF93282F30E0F901E058FF4FD0
:1018C0008491F901EC56FF4FD491F901E855FF4F8F
:1018D000C491CC2391F081110E94C10BEC2FF0E058
:1018E000EE0FFF1FE454FF4FA591B4912C912D23CF
:1018F00081E090E021F480E002C080E090E0DF91A0
:10190000CF910895BF92CF92DF92EF92FF920F9303
:101910001F93CF93DF93C82ED62EB42EC7E0D0E00E
:10192000022F10E087E0E82EF12CB1100AC0F70179
:10193000EC1BFD0BB80102C075956795EA95E2F7BF
:1019400007C0B8010C2E02C0759567950A94E2F79E
:10195000617077278C2D0E94230C61E08D2D0E94F1
:10196000230C60E08D2D0E94230C2197F0F6DF916F
:10197000CF911F910F91FF90EF90DF90CF90BF908C
:101980000895FC01818D228D90E0805C9F4F821B29
:1019900091098F7399270895FC01918D828D981775
:1019A00031F0828DE80FF11D858D90E008958FEF65
:1019B0009FEF0895FC01918D828D981761F0828DC3
:1019C000DF01A80FB11D5D968C91928D9F5F9F7373
:1019D000928F90E008958FEF9FEF08958EE59EE03F
:1019E000892B49F08CE994E0892B29F00E945E0E46
:1019F00081110C949C040895FC01848DDF01A80FD3
:101A0000B11DA35ABF4F2C91848D90E001968F7326
:101A10009927848FA689B7892C93A089B1898C9145
:101A200080648C93938D848D981306C00288F3890B
:101A3000E02D80818F7D80830895CF93DF93EC012B
:101A4000888D8823C9F0EA89FB89808185FD05C0DE
:101A5000A889B9898C9186FD0FC00FB607FCF5CF18
:101A6000808185FFF2CFA889B9898C9185FFEDCF60
:101A7000CE010E94FC0CE7CFDF91CF910895CF9269
:101A8000DF92FF920F931F93CF93DF931F92CDB7F7
:101A9000DEB76C0181E0D60158968C9358975B961F
:101AA0009C915B975C968C915C97981307C05096BD
:101AB000ED91FC915197808185FD2EC0F601038D3B
:101AC00010E00F5F1F4F0F731127F02EF601848D6A
:101AD000F81211C00FB607FCF9CFD6015096ED9160
:101AE000FC915197808185FFF1CFC60169830E94E7
:101AF000FC0C6981EBCF838DE80FF11DE35AFF4F9A
:101B00006083D6015B960C935B975296ED91FC91A6
:101B10005397808180620CC0D6015696ED91FC915E
:101B2000579760835096ED91FC9151978081806426
:101B3000808381E090E00F90DF91CF911F910F9112
:101B4000FF90DF90CF900895BF92CF92DF92EF92F7
:101B5000FF92CF93DF93EC016A017B01B22EE889FB
:101B6000F98982E08083411581EE5807610571058E
:101B7000A1F060E079E08DE390E0A70196010E947A
:101B8000D71121503109410951095695479537958B
:101B90002795211580E1380798F0E889F9891082A6
:101BA00060E874E88EE190E0A70196010E94D711E9
:101BB0002150310941095109569547953795279587
:101BC000EC85FD853083EE85FF852083188EEC89BA
:101BD000FD89B082EA89FB89808180618083EA89FE
:101BE000FB89808188608083EA89FB8980818068A5
:101BF0008083EA89FB8980818F7D8083DF91CF910B
:101C0000FF90EF90DF90CF90BF9008951F920F92BA
:101C10000FB60F9211242F938F939F93EF93FF93FF
:101C2000E091A302F091A4028081E091A902F091D9
:101C3000AA0282FD12C090818091AC028F5F8F73E7
:101C40002091AD02821751F0E091AC02F0E0ED5628
:101C5000FD4F958F8093AC0201C08081FF91EF9181
:101C60009F918F912F910F900FBE0F901F901895FD
:101C70001F920F920FB60F9211242F933F934F9301
:101C80005F936F937F938F939F93AF93BF93EF93E4
:101C9000FF9383E992E00E94FC0CFF91EF91BF91CA
:101CA000AF919F918F917F916F915F914F913F91F4
:101CB0002F910F900FBE0F901F90189583E992E01F
:101CC0000E94C10C21E0892B09F420E0822F0895A5
:101CD000109296021092950288EE93E0A0E0B0E098
:101CE0008093970290939802A0939902B0939A02DE
:101CF00085E491E0909394028093930285EC90E0C8
:101D00009093A00280939F0284EC90E09093A202B3
:101D10008093A10280EC90E09093A4028093A302B0
:101D200081EC90E09093A6028093A50282EC90E073
:101D30009093A8028093A70286EC90E09093AA0269
:101D40008093A9021092AC021092AD021092AE02E2
:101D50001092AF02089508950E94690B0E94AB0E85
:101D60000E942001CEEEDCE00E94DC032097E1F32C
:101D70000E94EE0CF9CFCF92DF92EF92FF920F9379
:101D80001F93CF93DF937C016A01EB0100E010E029
:101D90000C151D0571F06991D701ED91FC91019031
:101DA000F081E02DC7010995892B19F00F5F1F4FB6
:101DB000EFCFC801DF91CF911F910F91FF90EF906E
:101DC000DF90CF9008956115710581F0DB010D90D2
:101DD0000020E9F7AD0141505109461B570BDC01CA
:101DE000ED91FC910280F381E02D099480E090E078
:101DF0000895DC01ED91FC91DB0114964D915C910D
:101E000015976D917C910280F381E02D09940C94DB
:101E1000E30EDC01ED91FC910190F081E02D09943D
:101E200061E571E00C94E30E0F931F93CF93DF9362
:101E3000EC010E94F90E8C01CE010E94100F800F60
:101E4000911FDF91CF911F910F9108950F931F93D1
:101E5000CF93DF93EC010E94090F8C01CE010E9409
:101E6000100F800F911FDF91CF911F910F91089557
:101E70008F929F92AF92BF92DF92EF92FF920F9359
:101E80001F93CF93DF93CDB7DEB7A1970FB6F8942A
:101E9000DEBF0FBECDBF7C01F42FD52ECB0119A222
:101EA000223008F42AE08E010F5D1F4F822E912C04
:101EB000A12CB12C6F2F7D2DA50194010E94D7116B
:101EC000F22FD32ECA01015011096A3014F4E0E355
:101ED00001C0E7E3E60FD801EC93232B242B252B3D
:101EE00049F7B801C7010E94E30EA1960FB6F89416
:101EF000DEBF0FBECDBFDF91CF911F910F91FF903D
:101F0000EF90DF90BF90AF909F908F900895CF9209
:101F1000DF92EF92FF920F931F93CF93DF93EC0129
:101F20006A017B012115310579F4E881F98101907D
:101F3000F081E02D642FDF91CF911F910F91FF90E1
:101F4000EF90DF90CF9009942A303105E9F477FFC4
:101F50001AC06DE20E94090F8C0144275527BA016F
:101F60004C195D096E097F092AE0CE010E94380FE5
:101F7000800F911FDF91CF911F910F91FF90EF90F4
:101F8000DF90CF9008952AE0B701A601CE01DF913E
:101F9000CF911F910F91FF90EF90DF90CF900C9415
:101FA000380F9A01AB01662757FD6095762F0C9488
:101FB000870F2115310541F4DC01ED91FC91019071
:101FC000F081E02D642F09940C94380F9A01AB0135
:101FD00060E070E00C94D90F0F931F93CF93DF93C1
:101FE000EC010E94000B688779878A879B87E881CC
:101FF000F9810084F185E02DCE01099597FF15C088
:102000000E94000B088519852A853B85601B710B92
:10201000820B930B0C811D812E813F81601771070C
:102020008207930720F38FEF9FEFDF91CF911F91EE
:102030000F910895FF920F931F93CF93DF93EC01BD
:102040008B01F42ECE010E94EC0F9C0197FD28C05D
:102050008D32910519F1C0970A9710F1FF2019F000
:102060002E323105F9F001301105F9F00230110579
:1020700069F42D30310551F034F429503109223002
:10208000310520F012C02032310579F4E881F98160
:102090000680F781E02DCE010995D4CF8DE203C0F3
:1020A000C90105C08EE290E002C08FEF9FEFDF9183
:1020B000CF911F910F91FF900895CF92DF92FF92E1
:1020C0000F931F93CF93DF9300D000D0CDB7DEB72F
:1020D0006C01042F40E00E941A10FC0197FD4BC0D8
:1020E00020E030E0A901F12C112707FD1095E01741
:1020F000F107E9F0ED32F105C1F0CF01C0970A9781
:10210000B0F4AAE0B0E00E940E129B01AC01CF0136
:10211000AA2797FDA095BA2F280F391F4A1F5B1FCA
:10212000205331094109510902C0FF24F394D6011B
:10213000ED91FC910680F781E02DC60129833A8359
:102140004B835C830995C6010E94EC0FFC01C0978C
:1021500029813A814B815C810A9748F2E017F107A7
:1021600031F2FF2061F066277727CB01621B730BEA
:10217000840B950B06C060E070E0CB0102C0CA0181
:10218000B9010F900F900F900F90DF91CF911F9199
:102190000F91FF90DF90CF900895FC018081918195
:1021A0000C94B112CF93DF93EC0188819981009751
:1021B00011F00E94B112198218821D821C821B82AA
:1021C0001A82DF91CF9108950F931F93CF93DF93DE
:1021D000EC018B016F5F7F4F888199810E944013D2
:1021E000009731F0998388831B830A8381E001C0C3
:1021F00080E0DF91CF911F910F910895CF93DF93EE
:10220000EC0188819981892B29F08A819B8186172D
:10221000970760F4CE010E94E410882341F08C817E
:102220009D81892B19F4E881F981108281E0DF9189
:10223000CF910895EF92FF920F931F93CF93DF9367
:10224000EC017B018A01BA010E94FE10811104C0D9
:10225000CE010E94D21007C01D830C83B701888174
:1022600099810E941314CE01DF91CF911F910F919C
:10227000FF90EF900895FC01118210821382128268
:10228000158214826115710559F0FB01019000203F
:10229000E9F7AF0141505109461B570B0C941A1135
:1022A0000895CF93DF93EC016115710561F0FB0197
:1022B00001900020E9F7AF0141505109461B570B2F
:1022C0000E941A1102C00E94D210CE01DF91CF915C
:1022D0000895EF92FF920F931F93CF93DF93EC013A
:1022E0007B010C811D816115710511F480E016C020
:1022F0004115510591F0040F151FB8010E94FE1001
:102300008823A1F3288139818C819D81B701820FB7
:10231000931F0E9413141D830C8381E0DF91CF91E2
:102320001F910F91FF90EF9008956115710559F07D
:10233000FB0101900020E9F7AF0141505109461B14
:10234000570B0C94691180E00895EF92FF920F9360
:102350001F93CF93DF93CDB7DEB728970FB6F894CE
:10236000DEBF0FBECDBF7C01CB014AE08E010F5F07
:102370001F4FB8010E941A14F80101900020E9F7DC
:10238000AF0141505109401B510BB801C7010E94D8
:10239000691128960FB6F894DEBF0FBECDBFDF914E
:1023A000CF911F910F91FF90EF9008950895A1E2B2
:1023B0001A2EAA1BBB1BFD010DC0AA1FBB1FEE1FBF
:1023C000FF1FA217B307E407F50720F0A21BB30B0A
:1023D000E40BF50B661F771F881F991F1A9469F786
:1023E00060957095809590959B01AC01BD01CF01E2
:1023F0000895EE0FFF1F0590F491E02D0994A29F20
:10240000B001B39FC001A39F700D811D1124911DC8
:10241000B29F700D811D1124911D08950E94FF111E
:10242000A59F900DB49F900DA49F800D911D112428
:102430000895CF93DF938230910510F482E090E00D
:10244000E0913203F091330320E030E0A0E0B0E00F
:10245000309739F14081518148175907B8F0481732
:10246000590771F482819381109729F013969C93F8
:102470008E9312972CC0909333038093320327C01E
:102480002115310531F04217530718F0A901DB017E
:1024900001C0EF019A01BD01DF010280F381E02D4F
:1024A000D7CF21153105F9F0281B390B2430310520
:1024B00080F48A819B816115710521F0FB01938372
:1024C000828304C09093330380933203FE013296DB
:1024D00044C0FE01E20FF31F819391932250310912
:1024E000398328833AC02091300330913103232B64
:1024F00041F4209102013091030130933103209384
:10250000300320910001309101012115310541F482
:102510002DB73EB74091040150910501241B350BA6
:10252000E0913003F0913103E217F307A0F42E1B82
:102530003F0B2817390778F0AC014E5F5F4F241727
:10254000350748F04E0F5F1F50933103409330031F
:102550008193919302C0E0E0F0E0CF01DF91CF9151
:102560000895CF93DF93009709F487C0FC01329759
:1025700013821282C0913203D0913303209781F4E9
:1025800020813181280F391F8091300390913103D0
:102590008217930779F5F0933103E09330036DC010
:1025A000DE0120E030E0AE17BF0750F412964D91E7
:1025B0005C9113979D014115510509F1DA01F3CFA3
:1025C000B383A28340815181840F951F8A179B0793
:1025D00071F48D919C911197840F951F02969183B0
:1025E000808312968D919C911397938382832115FA
:1025F000310529F4F0933303E09332033EC0D9014F
:102600001396FC93EE9312974D915D91A40FB51F15
:10261000EA17FB0779F480819181840F951F029658
:10262000D90111969C938E938281938113969C93EA
:102630008E931297E0E0F0E08A819B81009719F079
:10264000FE01EC01F9CFCE01029628813981820F7B
:10265000931F20913003309131032817390769F413
:10266000309729F4109233031092320302C0138280
:102670001282D0933103C0933003DF91CF9108953C
:10268000A0E0B0E0E6E4F3E10C945314EC01CB01DC
:10269000209719F40E941912B8C0FE01E60FF71F27
:1026A0009E0122503109E217F30708F4ACC0D901AA
:1026B0000D911C91119706171707B8F005301105F9
:1026C00008F49FC0A801445051094617570708F461
:1026D00098C002501109061B170B019311936D93BB
:1026E0007C93CF010E94B1128CC05B01A01AB10A89
:1026F0004E01800E911EA0913203B0913303612CE4
:10270000712C60E070E0109709F449C0A815B90574
:10271000C9F5ED90FC901197670142E0C40ED11C01
:10272000CA14DB0478F147018A189B08640142E06F
:10273000C40ED11C1296BC9012971396AC91B5E0C2
:10274000CB16D10440F0B282A38391828082D9015A
:102750008D939C9309C00E5F1F4F0E0D1F1DF90135
:1027600011830083EB2DFA2F6115710531F0DB0128
:102770001396FC93EE93129744C0F0933303E093C7
:1027800032033FC06D917C9111976616770608F46D
:102790003B01BD0112960D90BC91A02DB4CF60916C
:1027A00030037091310368157905E9F468167906EC
:1027B000D0F440910001509101014115510541F4BF
:1027C0004DB75EB76091040170910501461B570B30
:1027D000E417F507C0F4F0933103E0933003F901F7
:1027E000918380830EC00E9419127C01009759F0DA
:1027F000A801BE010E940A14CE010E94B112C701B5
:1028000004C0CE0102C080E090E0CDB7DEB7EEE0BC
:102810000C946F14FB01DC0102C001900D92415039
:102820005040D8F70895FB01DC0101900D92002083
:10283000E1F70895BB274A3031F4992322F4BDE231
:10284000909581959F4F0C942614BB27FB0155272B
:10285000AA27880F991FAA1FA41710F0A41B8395FD
:102860005051B9F7A05DAA3308F0A95DA193009774
:1028700079F7B111B1931192CB010C943F14DC01A3
:10288000FC01672F71917723E1F7329704C07C91A7
:102890006D9370836291AE17BF07C8F308952F92AE
:1028A0003F924F925F926F927F928F929F92AF92E0
:1028B000BF92CF92DF92EF92FF920F931F93CF932D
:1028C000DF93CDB7DEB7CA1BDB0B0FB6F894DEBFC4
:1028D0000FBECDBF09942A88398848885F846E84EA
:1028E0007D848C849B84AA84B984C884DF80EE8034
:1028F000FD800C811B81AA81B981CE0FD11D0FB63D
:10290000F894DEBF0FBECDBFED01089510E0C0EE1C
:10291000D0E004C0FE010E94FB112296C23ED10706
:06292000C9F7F894FFCF97
:10292600000034038000100011000E0002000F00AA
:1029360003000D000C000B000A0094D4A4E406006A
:10294600070005000400470A470A012C00000000A2
:102956000000091609290900000000000916097C73
:1029660009000000003F0DBB0EC10CDA0CCC0C1D9B
:102976000D0D0A006E616E00696E66006F76660068
:022986002E0021
:00000001FF
